S01300006D61737465725F756E69742E7372656366
S21440000098C800204D014000D1014000D101400079
S214400010D1014000D1014000D10140000000000065
S214400020000000000000000000000000BD07400087
S214400030D10140000000000079094000D909400085
S214400040D1014000D1014000D1014000D101400023
S214400050D1014000D1014000D1014000D101400013
S21440006000000000053B4000553B4000A53B4000DB
S214400070F53B4000453C4000D1014000D1014000E6
S214400080D1014000D1014000D10140001D41400057
S214400090D1014000D1014000D1014000D1014000D3
S2144000A0D1014000D1014000D1014000D1014000C3
S2144000B0D1014000D1014000D1014000D1014000B3
S2144000C0D1014000D1014000D1014000D1014000A3
S2144000D0D1014000D1014000D1014000D101400093
S2144000E000000000000000000000000000000000CB
S2144000F0D1014000D101400010B5054C237833B9FA
S214400100044B13B10448AFF300800123237010BDA5
S21440011038040020000000005047400008B5064B59
S2144001201BB106480649AFF300800648036813B182
S214400130054B03B1984708BD0000000050474000FB
S2144001403C040020504740000000000080B582B0CC
S21440015000AF164B7B60164B3B607A683B689A4212
S2144001600CD007E03B681A1D3A607A68111D79602A
S21440017012681A603A680F4B9A42F3D30E4B3B60B4
S21440018004E03B681A1D3A6000221A603A680B4B3E
S2144001909A42F6D30A4B7B600A4B7A6822F07F027B
S2144001A09A60094B9847094B9847FEE750474000EE
S2144001B000000020380400203804002098C40020A6
S2144001C00000400000ED00E0814140009D034000FB
S2144001D080B400AFFEE700BF80B500AF094B98473C
S2144001E009480421094B984707480521074B98477B
S2144001F005480621054B984703480721034B984777
S21440020080BD00BF9938400000120E40E5384000DF
S21440021080B582B000AF786039603B68DBB2786802
S21440022019460B4B98470346002B07D03B68DBB27A
S214400230786819460022074B984706E03B68DBB2D1
S214400240786819460122034B98470837BD4680BD5B
S214400250953A40001939400080B500AF0A20102179
S2144002600022074B98470246064B1A600A20102188
S2144002700022034B98470246034B1A6080BD00BFDE
S21440028015114000540400205804002080B582B068
S21440029000AF42F210737B60064B984703463B60C4
S2144002A005480721054B98473B4618467968044B56
S2144002B09847F5E7FD20400000120E40110240002E
S2144002C0A51D400090B589B002AF0A237B61144B50
S2144002D0984703463B61134B1B68002B1FD0114BBE
S2144002E01A683B46104619464FF0FF3200230E4C24
S2144002F0A04705E007F11003184679690B4B98476D
S2144003006B4607F1080292E8030083E803003B4689
S2144003100CCB0748074988470346012BEAD0DAE763
S214400320FD2040005404002025164000A51D400036
S21440033000400140C937400090B589B000AF7860B2
S2144003404FF47A73FB61104B98470346BB610F4BE3
S21440035007F108040FCB84E80F000D4B1B68002BF9
S21440036010D00B4B1A6807F10803104619460022B6
S2144003700023084CA04707F118031846F969064BB6
S2144003809847E4E7E3E700BFFD204000F84440001C
S21440039054040020CD114000A51D400090B58BB000
S2144003A004AF304B2F4A526822F400525A602E4B0C
S2144003B098472E4A07F110031068186012791A7190
S2144003C007F1100393E80300294B9847294B9847B9
S2144003D029482A494FF47A72294B9847294B3C467C
S2144003E00FCB84E80F006B4607F1080292E8030043
S2144003F083E803003B460CCB1F4823498847234BE2
S214400400984701230093002301930023029300237F
S21440041003931F481F49782200231F4CA0470323FD
S21440042000930023019300230293002303931B4869
S2144004301B4978220023184CA04702230093002330
S214400440019300230293002303931648164978220B
S2144004500023114CA047154B9847002318461C37DD
S214400460BD4690BD50180E404D3840003C454000BB
S214400470C5404000D901400000400140000E27071B
S2144004802537400048454000C937400059024000E3
S2144004908D02400008454000011C4000C502400057
S2144004A01C4540003903400030454000BD1E40001A
S2144004B080B582B000AF7860396098200249034B1F
S2144004C098470837BD4680BD58454000D104400097
S2144004D080B586B000AF786039607B683B610023AA
S2144004E0FB603B687B61064B984700BFFB68002B70
S2144004F0FCD0044B98473B691837BD4680BD00BFCB
S214400500DD0840003109400080B400AF094B094A7D
S214400510126842F080721A60074B00221A60074B3E
S214400520064A126842F001021A60BD465DF8047B36
S214400530704700BFFCED00E0041000E0001000E053
S21440054080B483B000AF174B1B687B60164B1B68AC
S2144005507A689A4204D2154B1B685A1C134B1A6091
S214400560114B7A681A60124B1A68124B9A4209D895
S2144005707B685B0B7B600D4B1B68DB047A6813441F
S2144005807B6008E07B689B0B7B60084B1B689B048A
S2144005907A6813447B607B6818460C37BD465DF826
S2144005A0047B7047041000E05C04002060040020D8
S2144005B0000000207F1D2C0480B483B000AF78601C
S2144005C07B6803F108027B685A607B684FF0FF3215
S2144005D09A607B6803F108027B68DA607B6803F107
S2144005E008027B681A617B6800221A600C37BD4699
S2144005F05DF8047B704700BF80B483B000AF78607E
S2144006007B6800221A610C37BD465DF8047B704754
S21440061080B485B000AF786039607B685B68FB600B
S2144006203B68FA685A60FB689A683B689A60FB6861
S2144006309B683A685A60FB683A689A603B687A6892
S2144006401A617B681B685A1C7B681A601437BD4663
S2144006505DF8047B704700BF80B485B000AF78601B
S21440066039603B681B68BB60BB68B3F1FF3F03D192
S2144006707B681B69FB600CE07B680833FB6002E02C
S214400680FB685B68FB60FB685B681A68BB689A42FD
S214400690F6D9FB685A683B685A603B685B683A68BC
S2144006A09A603B68FA689A60FB683A685A603B68AA
S2144006B07A681A617B681B685A1C7B681A60143714
S2144006C0BD465DF8047B704780B485B000AF786067
S2144006D07B681B69FB607B685B687A6892689A6097
S2144006E07B689B687A6852685A60FB685A687B6881
S2144006F09A4203D17B689A68FB685A607B680022FE
S2144007001A61FB681B685A1EFB681A60FB681B6808
S21440071018461437BD465DF8047B704780B485B0F4
S21440072000AFF860B9607A60FB68043BFB60FB682A
S2144007304FF080721A60FB68043BFB60BA68FB6847
S2144007401A60FB68043BFB600C4AFB681A60FB6857
S214400750143BFB607A68FB681A60FB68043BFB60EE
S214400760FB686FF002021A60FB68203BFB60FB6888
S21440077018461437BD465DF8047B70478107400035
S21440078080B582B000AF0A4B1B68B3F1FF3F04D080
S21440079040F201100749084B98474FF0500383F347
S2144007A01188BFF36F8FBFF34F8F7B60FEE700BFAC
S2144007B00400002074454000D1044000064B1968F0
S2144007C00868B0E8F04F80F30988BFF36F8F4FF0AA
S2144007D0000080F31188704790C0002006480068EB
S2144007E0006880F3088862B661B6BFF34F8FBFF3E8
S2144007F06F8F00DF00BF000008ED00E080B584B0DA
S21440080000AF2C4BFB60FB681B78DBB2BB60FB6821
S214400810FF221A70FB681B78DBB2FB71FB79DBB2F8
S21440082003F05003DAB2244B1A70244B07221A60A6
S21440083009E0224B1B685A1E204B1A60FB79DBB23C
S2144008405B00DBB2FB71FB79DBB2DBB25BB2002B49
S214400850EFDB1A4B1B681A02184B1A60174B1B68C3
S21440086003F4E062154B1A60BB68DAB2FB681A7094
S214400870134B134A126842F470021A60104B104A27
S214400880126842F070421A600E4B98470E4B002298
S2144008901A600E4B98470E4B0D4A126842F0404283
S2144008A01A600C4B98470C4B984700231846103755
S2144008B0BD4680BD00E400E07004002074040020C3
S2144008C020ED00E0A90B400004000020210C400071
S2144008D034EF00E0DD0740008107400080B582B07D
S2144008E000AF4FF0500383F31188BFF36F8FBFF311
S2144008F04F8F7B600A4B1B685A1C094B1A60084B8B
S2144009001B68012B09D1074B1B68DBB2002B04D0B8
S21440091040F293100449054B98470837BD4680BDC2
S2144009200400002004ED00E074454000D10440007F
S21440093080B582B000AF0D4B1B68002B04D14FF43E
S214400940CD700B490B4B9847084B1B685A1E074BFC
S2144009501A60064B1B68002B04D100237B607B6823
S21440096083F311880837BD4680BD00BF04000020D1
S21440097074454000D1044000EFF30980BFF36F8F09
S214400980144B1A681EF0100F08BF20ED108A20E99D
S214400990F04F10604DF8043D4FF0500080F3118842
S2144009A0BFF34F8FBFF36F8F01F09CFC4FF00000FA
S2144009B080F3118808BC19680868B0E8F04F1EF04C
S2144009C0100F08BFB0EC108A80F30988BFF36F8F12
S2144009D0704700BF90C0002080B584B000AFEFF3F2
S2144009E011824FF0500383F31188BFF36F8FBFF32C
S2144009F04F8FFA60BB60084B98470346002B03D0E6
S214400A00064B4FF080521A6000237B607B6883F36E
S214400A1011881037BD4680BD6121400004ED00E0DE
S214400A2080B588B000AF7860554B1B687A689A42AC
S214400A3002D9534B1B687B60524B524A126822F0D5
S214400A4001021A60504B1A687B68013B4F4909689F
S214400A5001FB03F31344FB614D4B1B68FA699A4252
S214400A6004D94B4B1B68FA69D31AFB6172B6494BE3
S214400A7098470346002B10D1474B434A12681A60EA
S214400A80404B404A126842F001021A60424B3F4ACD
S214400A901268013A1A6062B66FE03F4BFA691A6014
S214400AA0394B00221A60374B364A126842F0010230
S214400AB01A607B683B613B69002B04D0BFF34F8FC5
S214400AC030BFBFF36F8F2F4B1B68FB602D4BFA6810
S214400AD022F001021A6062B6FB6803F48033002BF2
S214400AE01DD02A4B1A68284B1968FB69CB1A134449
S214400AF0013B7B61264B1B687A699A4204D3234BA1
S214400B001B687A699A4203D9204B1B68013B7B617C
S214400B10214B7A691A607B68013BBB6118E01B4B2E
S214400B201B687A6802FB03F2174B1B68D31ABB603C
S214400B30164B1B68BA68B2FBF3F3BB61164BBA6937
S214400B4001321249096801FB02F1BA688A1A1A6032
S214400B500D4B00221A60114B98470A4B094A1268FF
S214400B6042F001021A60B8690D4B98470A4B074A93
S214400B701268013A1A600B4B98472037BD4680BD35
S214400B806804002010E000E018E000E06404002064
S214400B906C040020C927400014E000E0DD08400057
S214400BA01D2140003109400080B400AF154B1A6843
S214400BB0154BA3FB02039A09144B1A60134B1B6890
S214400BC06FF07F42B2FBF3F2114B1A600D4B1A687E
S214400BD00C4B1B68B2FBF3F32D22B2FBF3F20D4B2A
S214400BE01A600D4B074A1168074AA2FB0102920998
S214400BF0013A1A60094B07221A60BD465DF8047B2D
S214400C00704700BF00000020D34D621064040020EF
S214400C10680400206C04002014E000E010E000E0CF
S214400C20DFF80C00016841F4700101607047000075
S214400C3088ED00E080B582B000AFEFF305837B60BF
S214400C407B680F2B0ED90F4A7B6813441B78FB70CA
S214400C500D4B1B78FA789A4204D24FF435700B4904
S214400C600B4B98470B4B1B6803F4E0620A4B1B6820
S214400C709A4204D94FF439700449054B98470837CF
S214400C80BD4680BDF0E300E070040020744540009F
S214400C90D10440000CED00E07404002080B586B01E
S214400CA000AF78600023FB604F4B98474F4B1B6864
S214400CB0002B01D14E4B98474E4B1A687B68134029
S214400CC0002B7FD17B68002B16D008237A6813440C
S214400CD07B607B6803F00703002B0DD07B6823F016
S214400CE0070308337B607B6803F00703002B03D0C1
S214400CF0BB204149414B98477B68002B62D0404B14
S214400D001B687A689A425DD83E4B3B613D4B1B68F8
S214400D107B6104E07B693B617B691B687B617B6927
S214400D205A687B689A4203D27B691B68002BF1D1D4
S214400D302E4B1B687A699A4244D03B691A6808234E
S214400D401344FB607B691A683B691A607B695A6882
S214400D507B68D21A08235B009A4218D97A697B6866
S214400D601344BB60BB6803F00703002B03D0E820A6
S214400D702149224B98477B695A687B68D21ABB68E0
S214400D805A607B697A685A60B8681F4B98471C4B14
S214400D901A687B695B68D21A194B1A60184B1A6836
S214400DA01A4B1B689A4203D2154B1A68174B1A60A7
S214400DB07B695A680F4B1B681A437B695A607B698C
S214400DC000221A60124B9847FB6803F00703002B7B
S214400DD004D04FF494700849084B9847FB6818466F
S214400DE01837BD4680BD00BF591F400080C0002058
S214400DF0C50E40008CC00020B4454000D1044000E1
S214400E0084C0002078C00020890F400088C00020A1
S214400E10C51F400080B584B000AF78607B68FB603B
S214400E207B68002B3CD008235B42FA681344FB6087
S214400E30FB68BB60BB685A681B4B1B681340002BA3
S214400E4004D14FF49E701949194B9847BB681B68EC
S214400E50002B04D040F23D101449154B9847BB6810
S214400E605A68114B1B681340002B19D0BB681B688F
S214400E70002B15D1BB685A680B4B1B68DB431A40E6
S214400E80BB685A600B4B9847BB685A680A4B1B684E
S214400E901A44094B1A60B868084B9847084B98475D
S214400EA01037BD4680BD00BF8CC00020B445400012
S214400EB0D1044000591F400084C00020890F4000E4
S214400EC0C51F400080B485B000AF4FF43C43BB60C4
S214400ED0274BFB60FB6803F00703002B0CD0FB6836
S214400EE00733FB60FB6823F00703FB60BA68FB68C8
S214400EF0D21A1F4B1344BB60FB687B601D4B7A685D
S214400F001A601C4B00225A607A68BB681344FB6028
S214400F100823FA68D31AFB60FB6823F00703FB60DC
S214400F20FA68154B1A60144B1B6800225A60124B25
S214400F301B6800221A607B683B603B68FA68D21ADE
S214400F403B685A600C4B1A683B681A603B685A68A4
S214400F500A4B1A603B685A68094B1A60094B4FF0B7
S214400F6000421A601437BD465DF8047B704700BFE8
S214400F707804002078C0002080C0002088C0002070
S214400F8084C000208CC0002080B485B000AF78605C
S214400F90274BFB6002E0FB681B68FB60FB681A6837
S214400FA07B689A42F7D3FB68BB60FB685B68BA68AD
S214400FB01A447B689A4208D1FB685A687B685B682B
S214400FC01A44FB685A60FB687B607B68BB607B6842
S214400FD05B68BA681A44FB681B689A4218D1FB687B
S214400FE01A68144B1B689A420DD07B685A68FB6897
S214400FF01B685B681A447B685A60FB681B681A6803
S2144010007B681A6008E00B4B1A687B681A6003E03E
S214401010FB681A687B681A60FA687B689A4202D056
S214401020FB687A681A601437BD465DF8047B7047E3
S21440103078C0002080C0002080B584B000AF7860C3
S21440104039607B68FB60FB68002B04D14FF48470EA
S21440105029492A4B98472A4B9847FB681A68FB68E9
S214401060DB6BF968096C01FB03F31A44FB685A60B2
S214401070FB6800229A63FB681A68FB689A60FB6804
S2144010801A68FB68DB6B013BF968096C01FB03F3EC
S2144010901A44FB68DA60FB684FF0FF325A64FB681C
S2144010A04FF0FF329A643B68002B14D1FB681B69F3
S2144010B0002B1AD0FB6810331846124B984703464D
S2144010C0012B12D1104B4FF080521A60BFF34F8F56
S2144010D0BFF36F8F09E0FB68103318460B4B9847F9
S2144010E0FB6824331846094B9847094B9847012319
S2144010F018461037BD4680BDEC454000D104400040
S214401100DD0840005525400004ED00E0B9054000EC
S2144011103109400080B588B000AFF860B96013462A
S214401120FB710023BB61FB68002B04D14FF4A27017
S2144011302249234B9847BB68002B02D10023FB6112
S21440114005E0FB68BA6802FB03F30133FB61FB6909
S214401150583318461B4B984778617B69002B20D044
S2144011607B693B61BB68002B03D13B693A691A60D7
S21440117004E07B6903F158023B691A603B69FA68F0
S214401180DA633B69BA681A64386901210E4B98479E
S2144011903B69FA7983F850203B6900225A653B69DF
S2144011A0BB61BB69002B04D14FF4C1700349044BAB
S2144011B09847BB6918462037BD4680BDEC45400081
S2144011C0D10440009D0C40003910400080B58AB0E4
S2144011D000AFF860B9607A603B6000237B62FB68D2
S2144011E03B623B6A002B04D140F26B207149724B44
S2144011F09847BB68002B03D13B6A1B6C002B01D180
S214401200012300E00023002B04D14FF41B706949F2
S214401210694B98473B68022B03D13B6ADB6B012B3B
S21440122001D1012300E00023002B04D140F26D20C1
S2144012306049614B9847614B98470346002B02D163
S2144012407B68002B01D1012300E00023002B04D152
S2144012504FF41C705749584B9847594B98473B6A30
S2144012609A6B3B6ADB6B9A4202D33B68022B3DD1BA
S214401270386AB9683A68534B9847F8613B6A5B6D81
S214401280002B0FD0386A39684F4B98470346012BDE
S21440129028D14E4B4FF080521A60BFF34F8FBFF3AA
S2144012A06F8F1FE03B6A5B6A002B10D03B6A24338B
S2144012B01846474B98470346012B13D1434B4FF0F4
S2144012C080521A60BFF34F8FBFF36F8F0AE0FB69FF
S2144012D0002B07D03D4B4FF080521A60BFF34F8F24
S2144012E0BFF36F8F3B4B984701235FE07B68002B33
S2144012F003D1384B9847002358E07B6A002B06D131
S21440130007F114031846344B984701237B62314B50
S2144013109847324B98472A4B98473B6A5B6CB3F1E9
S214401320FF3F02D13B6A00225A643B6A9B6CB3F192
S214401330FF3F02D13B6A00229A64264B984707F14A
S21440134014023B1D10461946254B98470346002B72
S21440135024D1386A234B98470346002B18D03B6A63
S21440136003F110027B68104619461F4B9847386AAF
S2144013701E4B98471E4B98470346002B15D1134BE0
S2144013804FF080521A60BFF34F8FBFF36F8F0CE061
S214401390386A164B9847164B98475EE7386A134BA1
S2144013A09847134B9847002300E056E718462837DF
S2144013B0BD4680BDEC454000D1044000152B4000A2
S2144013C0DD08400055184000751B400004ED00E065
S2144013D0552540003109400025264000591F400051
S2144013E065264000851A40002524400089194000A3
S2144013F0C51F400080B58AB000AFF860B9607A601B
S2144014003B60FB683B623B6A002B04D14FF485602F
S2144014104049414B9847BB68002B03D13B6A1B6C45
S214401420002B01D1012300E00023002B04D140F221
S21440143029403849384B98473B68022B03D13B6AD2
S214401440DB6B012B01D1012300E00023002B04D1EC
S21440145040F22A402F49304B9847304B9847EFF39D
S21440146011824FF0500383F31188BFF36F8FBFF3A1
S2144014704F8FBA617B61BB69FB613B6A9A6B3B6A83
S214401480DB6B9A4202D33B68022B36D1386AB96886
S2144014903A68234B98473B6A9B6CB3F1FF3F24D195
S2144014A03B6A5B6D002B0DD0386A39681D4B9847F8
S2144014B00346012B1ED17B68002B1BD07B68012284
S2144014C01A6017E03B6A5B6A002B13D03B6A2433F2
S2144014D01846154B98470346002B0BD07B68002BCD
S2144014E008D07B6801221A6004E03B6A9B6C5A1C59
S2144014F03B6A9A6401237B6201E000237B62FB69BE
S2144015003B613B6983F311887B6A18462837BD46A2
S21440151080BD00BFEC454000D1044000350C400083
S21440152055184000751B40005525400080B588B0D2
S21440153000AF786039607B68BB61BB69002B04D123
S21440154040F2BD403249334B9847BB691B6C002B79
S21440155004D04FF498602E492E4B98472E4B984710
S214401560EFF311824FF0500383F31188BFF36F8F70
S214401570BFF34F8F3A61FB603B697B61BB699A6BF7
S214401580BB69DB6B9A4236D2BB699B6B5A1CBB6904
S2144015909A63BB699B6CB3F1FF3F24D1BB695B6D1B
S2144015A0002B0DD0B86900211C4B98470346012BF1
S2144015B01ED13B68002B1BD03B6801221A6017E007
S2144015C0BB695B6A002B13D0BB6924331846144BA7
S2144015D098470346002B0BD03B68002B08D03B684F
S2144015E001221A6004E0BB699B6C5A1CBB699A6472
S2144015F00123FB6101E00023FB617B69BB60BB68A4
S21440160083F31188FB6918462037BD4680BD00BF6E
S214401610EC454000D1044000350C4000751B4000AE
S2144016205525400080B58AB000AFF860B9607A6052
S2144016303B6000237B62FB683B623B6A002B04D125
S2144016404FF4AB607249734B9847BB68002B03D18D
S2144016503B6A1B6C002B01D1012300E00023002BCA
S21440166004D140F259506A496A4B98476A4B9847AA
S2144016700346002B02D17B68002B01D1012300E0FA
S2144016800023002B04D140F25C506149614B9847DF
S214401690624B98473B6A9B6B002B47D03B6ADB68A4
S2144016A0FB61386AB9685E4B98473B68002B22D18D
S2144016B03B6A9B6B5A1E3B6A9A633B6A1B68002BCD
S2144016C004D1584B984702463B6A5A603B6A1B69AE
S2144016D0002B27D03B6A10331846534B9847034697
S2144016E0012B1FD1514B4FF080521A60BFF34F8FE2
S2144016F0BFF36F8F16E03B6AFA69DA603B6A5B6A53
S214401700002B0FD03B6A24331846474B9847034676
S214401710002B07D0454B4FF080521A60BFF34F8FD7
S214401720BFF36F8F424B984701236CE07B68002BDA
S21440173003D13F4B9847002365E07B6A002B06D1D8
S21440174007F1140318463B4B984701237B62384BFE
S2144017509847394B9847314B98473B6A5B6CB3F197
S214401760FF3F02D13B6A00225A643B6A9B6CB3F14E
S214401770FF3F02D13B6A00229A642D4B984707F1FF
S21440178014023B1D104619462C4B98470346002B27
S21440179031D1386A2A4B98470346002B25D03B6AFE
S2144017A01B68002B08D11D4B98473B6A5B68184660
S2144017B0244B98471E4B98473B6A03F124027B68AC
S2144017C010461946204B9847386A204B9847204B7E
S2144017D098470346002B15D1144B4FF080521A60A1
S2144017E0BFF34F8FBFF36F8F0CE0386A174B9847A5
S2144017F0174B98474CE7386A144B9847144B984712
S214401800002300E044E718462837BD4680BD00BFA9
S214401810EC454000D1044000152B4000DD08400058
S21440182039194000312D40005525400004ED00E0B8
S2144018303109400025264000591F400065264000DB
S214401840511A4000512B4000252440008919400081
S214401850C51F400080B586B000AFF860B9607A60BA
S21440186000237B61FB681B6C002B0DD1FB681B685B
S214401870002B52D1FB685B6818462D4B9847786121
S214401880FB6800225A6048E07B68002B1AD1FB6850
S2144018909A68FB681B6C1046B9681A46254B9847F1
S2144018A0FB689A68FB681B6C1A44FB689A60FB6886
S2144018B09A68FB685B689A422FD3FB681A68FB6895
S2144018C09A602AE0FB68DA68FB681B6C1046B968C9
S2144018D01A46184B9847FB68DA68FB681B6C5B42F5
S2144018E01A44FB68DA60FB68DA68FB681B689A4251
S2144018F007D2FB685A68FB681B6C5B421A44FB685D
S214401900DA607B68022B08D1FB689B6B002B04D007
S214401910FB689B6B5A1EFB689A63FB689B6B5A1C62
S214401920FB689A637B6918461837BD4680BD00BF82
S214401930452C40003942400080B582B000AF786008
S21440194039607B681B6C002B19D07B68DA687B6833
S2144019501B6C1A447B68DA607B68DA687B685B6875
S2144019609A4203D37B681A687B68DA607B68DA68D9
S2144019707B681B6C386811461A46024B98470837F6
S214401980BD4680BD3942400080B582B000AF786029
S2144019902A4B984722E07B685B6D002B09D078681D
S2144019A00021274B98470346012B12D1254B9847D9
S2144019B00FE07B685B6A002B0AD07B6824331846AE
S2144019C0214B98470346002B03D01E4B984700E018
S2144019D008E07B689B6C5A1E7B689A647B689B6CAD
S2144019E0002BD8DC7B684FF0FF329A64174B984741
S2144019F0124B984714E07B681B69002B0FD07B681E
S214401A0010331846104B98470346002B01D00D4B19
S214401A1098477B685B6C5A1E7B685A6400E003E01C
S214401A207B685B6C002BE6DC7B684FF0FF325A64C9
S214401A30064B98470837BD4680BD00BFDD084000CE
S214401A40751B4000212740005525400031094000C5
S214401A5080B584B000AF7860084B98477B689B6B36
S214401A60002B02D10123FB6001E00023FB60044B06
S214401A709847FB6818461037BD4680BDDD084000D5
S214401A803109400080B584B000AF7860094B984774
S214401A907B689A6B7B68DB6B9A4202D10123FB60C2
S214401AA001E00023FB60044B9847FB68184610375C
S214401AB0BD4680BDDD0840003109400080B485B099
S214401AC000AF786039600023FB6014E00E4BFA6884
S214401AD053F83230002B0BD10B4BFA68396843F879
S214401AE03210094AFB68DB0013447A685A6005E006
S214401AF0FB680133FB60FB68072BE7D91437BD460C
S214401B005DF8047B704700BF50C4002080B584B0A9
S214401B1000AF786039607B68FB60124B9847FB6883
S214401B205B6CB3F1FF3F02D1FB6800225A64FB684E
S214401B309B6CB3F1FF3F02D1FB6800229A640A4BCC
S214401B409847FB689B6B002B05D1FB6824331846EF
S214401B503968064B9847F868054B98471037BD4696
S214401B6080BD00BFDD08400031094000CD24400064
S214401B708919400080B584B000AF786039607B68D2
S214401B805B6DBB600023FB60BB68002B04D140F656
S214401B90F9101749174B9847BB689A6BBB68DB6BC5
S214401BA09A4204D340F6FA101149124B9847BB6844
S214401BB09A6BBB68DB6B9A4214D23B1DB8681946D9
S214401BC03A680D4B9847F860BB685B6A002B09D0B3
S214401BD0BB6824331846094B98470346002B01D070
S214401BE00123FB60FB6818461037BD4680BD00BF2A
S214401BF0EC454000D10440005518400055254000B3
S214401C0090B58BB002AFF860B9603B601346FB807E
S214401C10FB68002B04D140F229205249524B98478A
S214401C203B6B042B04D940F22A204E494E4B984732
S214401C30FB881846B96B4D4B9847B861BB69002B7B
S214401C4073D0BB691A6BFB8803F18043013B9B0052
S214401C5013447B617B6923F007037B617B6903F058
S214401C600703002B04D04FF416703E493E4B98476E
S214401C70FB880093B869B9683A6BFB6B3C4CA0474D
S214401C807869F9683A683B4B98470246BB691A60E0
S214401C907B6B002B02D07B6BBA691A60364B984739
S214401CA0364B1B685A1C354B1A60354B1B68002B4D
S214401CB009D1334BBA691A60304B1B68012B0FD1E0
S214401CC0304B98470CE0304B1B68002B08D12C4B10
S214401CD01B68DA6A3B6B9A4202D8294BBA691A608B
S214401CE02A4B1B685A1C294B1A60284B1A68BB693A
S214401CF01A64BB69DB6A01229A40254B1B681A436B
S214401D00234B1A60BB69DA6A13469B0013449B0058
S214401D10204A1A44BB690433104619461E4B98475E
S214401D200123FB611D4B984702E04FF0FF33FB61F8
S214401D30FB69012B11D1144B1B68002B0DD0104BA7
S214401D401B68DA6A3B6B9A4207D2154B4FF08052BB
S214401D501A60BFF34F8FBFF36F8FFB691846243767
S214401D60BD4690BD14464000D10440002D2A400098
S214401D70052840001D074000DD08400068C10020DF
S214401D8090C00020B128400074C1002084C10020CB
S214401D9070C1002094C00020110640003109400068
S214401DA004ED00E080B586B000AF7860396000236F
S214401DB07B617B68002B04D140F23B303449354B85
S214401DC098473B68002B04D14FF44F703049314B55
S214401DD09847314B1B68002B04D040F23D302C49CD
S214401DE02C4B98472D4B98472D4B1B683B617B6887
S214401DF01A683B681344FB607B681A683B699A42E2
S214401E000BD97B681A68FB689A4211D9FA683B6915
S214401E109A420DD901237B610AE07B681A68FB6809
S214401E209A4203D8FA683B699A4201D901237B61FA
S214401E307B68FA681A607B69002B17D0194B1B68C1
S214401E4004331846184B98470346002B0BD1154BC6
S214401E501B68DB6A012202FA03F3DA43134B1B6862
S214401E601A40124B1A60F868114B9847114B984726
S214401E70B860BB68002B07D10F4B4FF080521A60FA
S214401E80BFF34F8FBFF36F8F1837BD4680BD00BF7F
S214401E9014464000D104400088C10020591F40002D
S214401EA06CC1002090C00020C906400070C10020D0
S214401EB0BD294000C51F400004ED00E090B587B046
S214401EC004AF0023009300230193002302930023D2
S214401ED003931748174978220023174CA047786089
S214401EE07B68012B02D1154B984778607B68012BA5
S214401EF013D14FF0500383F31188BFF36F8FBFF3B6
S214401F004F8F3B600E4B01221A600E4B00221A6028
S214401F100D4B98470D4B984707E07B68002B04D144
S214401F2040F24C600A490B4B98470C37BD4690BD73
S214401F30392740003C464000011C4000592D4000D7
S214401F4074C100206CC1002009054000FD07400018
S214401F5014464000D104400080B400AF044B1B68D8
S214401F605A1C034B1A60BD465DF8047B704700BFA1
S214401F7088C1002080B483B000AF0E4B1B68DB6A7C
S214401F80002B02D000237B600CE00B4B1B68012B20
S214401F9002D900237B6005E0084B1A68084B1B6893
S214401FA0D31A7B607B6818460C37BD465DF8047BC9
S214401FB0704700BF90C0002094C00020080000205A
S214401FC06CC1002080B582B000AF00237B603B4BE5
S214401FD01B68002B04D140F289603949394B984739
S214401FE0394B9847354B1B685A1E344B1A60334B57
S214401FF01B68002B5BD1354B1B68002B57D02EE05F
S214402000334BDB68DB683B603B6818331846314B24
S21440201098473B68043318462E4B98473B68DB6A24
S21440202001229A402C4B1B681A432B4B1A603B6884
S214402030DA6A13469B0013449B00284A1A443B68BE
S214402040043310461946264B98473B68DA6A254BB8
S2144020501B68DB6A9A4202D3234B01221A601C4B50
S2144020601B68002BCCD1214B1B68002B11D00CE0F9
S2144020701F4B98470346002B02D01B4B01221A6089
S2144020801A4B1B685A1E194B1A60184B1B68002BBC
S214402090EED1154B1B68012B09D101237B60154BF4
S2144020A04FF080521A60BFF34F8FBFF36F8F124BC3
S2144020B098477B6818460837BD4680BD88C10020D3
S2144020C014464000D1044000DD08400068C10020AE
S2144020D028C10020C906400070C1002094C00020DE
S2144020E01106400090C000207CC1002078C100202E
S2144020F06121400004ED00E03109400080B483B027
S21440210000AF054B1B687B607B6818460C37BD46A6
S2144021105DF8047B704700BF6CC1002080B582B07C
S21440212000AF78600A4B1A687B681A44094B1B68F4
S2144021309A4204D940F286700749084B9847044BA8
S2144021401A687B681A44024B1A600837BD4680BD41
S2144021506CC100200800002014464000D104400016
S21440216080B586B000AF00237B614E4B1B68002BCA
S21440217040F088804C4B1B685A1C4B4B1A604A4BAD
S2144021801B683B613B69002B1AD1484B1B681B6898
S214402190002B04D040F2A5704549464B9847434B28
S2144021A01B68FB60444B1A68404B1A60424BFA6807
S2144021B01A60424B1B685A1C404B1A60404B98476B
S2144021C0404B1B683A699A424DD3384B1B681B6894
S2144021D0002B01D1012300E00023002B04D0394B13
S2144021E04FF0FF321A603EE0304B1B68DB68DB681E
S2144021F0BB60BB685B687B603A697B689A4203D287
S214402200304B7A681A602EE0BB68043318462E4B73
S2144022109847BB689B6A002B04D0BB6818331846A7
S214402220294B9847BB68DB6A01229A40274B1B68BC
S2144022301A43264B1A60BB68DA6A13469B0013445F
S2144022409B00234A1A44BB68043310461946214B68
S2144022509847BB68DA6A204B1B68DB6A9A4201D310
S21440226001237B61B1E71C4B1B68DA6A18491346A9
S2144022709B0013449B000B441B68012B07D901238A
S2144022807B6104E0154B1B685A1C144B1A60144BB8
S2144022901B68002B01D001237B617B6918461837E9
S2144022A0BD4680BD88C100206CC1002020C10020F2
S2144022B014464000D104400024C1002080C10020C4
S2144022C0CD2A400008000020C906400070C100200A
S2144022D094C000201106400090C0002078C1002025
S2144022E07CC1002080B584B000AF414B1B68002BFA
S2144022F003D0404B01221A6077E03E4B00221A6022
S2144023003D4B984702463D4B1A603C4B1A683C4B47
S2144023101B689A4209D93B4B1B68196D374A1068AF
S214402320374A1268821A0A441A65344B1A68344B84
S2144023301A60344B1B681A68324B1B681B6B9A42F8
S21440234008D8304B1A682F4B1B6834331046194652
S2144023502D4B98472B4B1B681B6B18462B4914225A
S2144023602B4B98470346002B08D0264B1A68254B24
S2144023701B68343310461946234B9847254B1B6839
S2144023807B607B68B3FA83F3FB70FB78C3F11F0373
S214402390FB602149FA6813469B0013449B000B449C
S2144023A01B68002B04D140F6C4001C491C4B9847C0
S2144023B0FA6813469B0013449B00174A1344BB60BD
S2144023C0BB685B685A68BB685A60BB685A68BB683B
S2144023D008339A4204D1BB685B685A68BB685A6047
S2144023E0BB685B68DA68074B1A601037BD4680BD2D
S2144023F088C100207CC100204105400090C10020DB
S2144024008CC1002090C00020B10440006C464000C3
S214402410D141400070C1002094C0002014464000C6
S214402420D104400080B584B000AF786039607B68E6
S214402430002B04D140F6D6001A491B4B98471B4B3D
S2144024401B68183378681946194B9847174B1B6812
S21440245004331846174B98470346002B0BD1134BB3
S2144024601B68DB6A012202FA03F3DA43124B1B684D
S2144024701A40114B1A603B68B3F1FF3F07D10B4B34
S2144024801B6804330D4819460D4B984707E00D4B23
S2144024901A683B681344FB60F8680B4B9847103744
S2144024A0BD4680BD14464000D104400090C0002088
S2144024B059064000C906400070C1002054C10020A3
S2144024C0110640006CC10020BD29400080B584B094
S2144024D000AF786039607B68002B04D140F6551019
S2144024E01449154B9847154B1B681833786819469E
S2144024F0134B9847114B1B6804331846114B9847AB
S2144025000346002B0BD10D4B1B68DB6A012202FAF7
S21440251003F3DA430C4B1B681A400B4B1A600B4B09
S2144025201A683B681344FB60F868094B98471037B5
S214402530BD4680BD14464000D104400090C00020F7
S21440254011064000C906400070C100206CC1002042
S214402550BD29400080B584B000AF78607B68DB68FA
S214402560DB68BB60BB68002B04D140F68F10224965
S214402570224B9847BB6818331846214B9847214B47
S2144025801B68002B1CD1BB68043318461C4B98476D
S214402590BB68DB6A01229A401B4B1B681A431A4BE6
S2144025A01A60BB68DA6A13469B0013449B00174ABE
S2144025B01A44BB68043310461946154B984705E045
S2144025C0BB68183313481946114B9847BB68DA6AFC
S2144025D0114B1B68DB6A9A4205D90123FB600F4BFF
S2144025E001221A6001E00023FB600D4B9847FB6810
S2144025F018461037BD4680BD14464000D104400002
S214402600C906400088C1002070C1002094C0002048
S2144026101106400028C1002090C000207CC1002048
S214402620CD2A400080B582B000AF78607B68002B32
S21440263004D140F6EF100749074B9847074B1A68F6
S2144026407B681A60064B1A687B685A600837BD4636
S21440265080BD00BF14464000D104400080C1002029
S2144026606CC1002080B584B000AF786039607B686C
S214402670002B04D140F6F9102249234B98473B687B
S214402680002B04D140F6FA101E491F4B98471F4BAB
S21440269098471F4B1B68BB603B681B68B3F1FF3F06
S2144026A002D10023FB6026E07B681A68194B1B6842
S2144026B09A4207D07B685A68BB689A4202D8012380
S2144026C0FB6018E07B685B68BA68D21A3B681B6898
S2144026D09A420ED23B681A687B685968BB68CB1A28
S2144026E01A443B681A6078680B4B98470023FB6097
S2144026F001E00123FB60094B9847FB6818461037FA
S214402700BD4680BD14464000D1044000DD08400070
S2144027106CC1002080C100202526400031094000C1
S21440272080B400AF034B01221A60BD465DF8047BBF
S214402730704700BF7CC1002080B584B000AF786091
S214402740164B9847164B1B68012B07D9154B4FF075
S21440275080521A60BFF34F8FBFF36F8F124B98476C
S214402760F860FB68012B17D9104B9847104B1A6836
S214402770104B1B689A4204D240F6AA200E490F4BD3
S2144027809847094B9847F860FB68012B02D9F868D0
S2144027900B4B98470B4B9847D2E700BF3129400078
S2144027A094C0002004ED00E0751F4000591F400013
S2144027B0080000206CC1002014464000D1044000B0
S2144027C0210A4000C51F400080B483B000AF0123FB
S2144027D0FB710A4B1B68002B02D00023FB7105E0FF
S2144027E0074B1B68002B01D00023FB71FB79184672
S2144027F00C37BD465DF8047B704700BF28C10020FB
S2144028007CC1002080B586B000AFF860B9607A60C1
S2144028103B6000237B6112E0BA687B6913441A78F8
S214402820F9687B690B4430331A71BA687B69134484
S2144028301B78002B00D105E07B6901337B617B6907
S214402840092BE9D9FB68002283F83D207B68042BDE
S21440285001D904237B60FB687A68DA62FB687A6891
S2144028609A64FB680022DA64FB68043318460F4B10
S2144028709847FB68183318460C4B9847FB68FA682D
S2144028801A617B68C3F10502FB689A61FB68FA68C7
S2144028905A62FB6800221A65FB6800225A65FB688C
S2144028A0002283F858201837BD4680BDF905400001
S2144028B080B582B000AF00237B600CE07A68134698
S2144028C09B0013449B00114A13441846104B9847EC
S2144028D07B6801337B607B68042BEFD90D480C4B3B
S2144028E098470D480A4B98470C48094B98470C4860
S2144028F0074B98470B48064B98470B4B054A1A60C0
S2144029000A4B054A1A600837BD4680BD94C0002071
S214402910B9054000F8C000200CC1002028C10020A6
S2144029203CC1002054C1002020C1002024C100200A
S21440293080B582B000AF28E0174B9847174B1B680E
S214402940002B14BF00230123DBB27B60144B984757
S2144029507B68002B19D1134B9847104BDB68DB681C
S2144029603B603B68043318460F4B98470F4B1B6839
S2144029705A1E0E4B1A600E4B1B685A1E0C4B1A60A2
S2144029800C4B984738680C4B9847094B1B68002BF4
S214402990D2D10837BD4680BD591F40003CC10020FB
S2144029A0C51F4000DD084000C906400068C1002041
S2144029B050C1002031094000A92A400080B582B0AD
S2144029C000AF7860134B1B687A685A60124B1B68DE
S2144029D07A689A4209D2114B1A680E4B1B68043328
S2144029E0104619460E4B984710E00E4B1A68094B96
S2144029F01B68043310461946094B98470A4B1B6818
S214402A007A689A4202D2084B7A681A600837BD46FE
S214402A1080BD00BF90C000206CC1002024C10020B3
S214402A205906400020C100200800002080B584B030
S214402A3000AF03463960FB803B68002B06D1FB881D
S214402A409B001846154B9847034600E03B68BB6022
S214402A50BB68002B0ED05C20104B9847F860FB6894
S214402A60002B03D0FB68BA681A6305E0B8680C4BC5
S214402A70984701E00023FB60FB68002B08D0FB680A
S214402A801A6BFB889B001046A5211A46054B9847B3
S214402A90FB6818461037BD4680BD00BF9D0C400001
S214402AA0150E40006D43400080B582B000AF7860A0
S214402AB07B681B6B1846044B98477868024B9847D0
S214402AC00837BD4680BD00BF150E400080B483B0B9
S214402AD000AF0E4B1B681B68002B01D1012300E0A2
S214402AE00023002B04D00A4B4FF0FF321A6008E058
S214402AF0064B1B68DB68DB687B607B685A68044B68
S214402B001A600C37BD465DF8047B704720C1002034
S214402B100800002080B483B000AF0B4B1B68002B2E
S214402B2002D101237B6008E0084B1B68002B02D1D2
S214402B3002237B6001E000237B607B6818460C37ED
S214402B40BD465DF8047B704774C1002088C10020F4
S214402B5080B584B000AF78607B68FB607B68002BF4
S214402B6062D0FB68DA6A324B1B68DB6A9A425BD2F9
S214402B70FB689B69002B06DB2D4B1B68DB6AC3F1A9
S214402B800502FB689A61FB685969FB68DA6A134676
S214402B909B0013449B00274A1344994201D10123CA
S214402BA000E00023002B3AD0FB6804331846224B43
S214402BB098470346002B15D1FB68DA6A1D49134631
S214402BC09B0013449B000B441B68002B0AD1FB68F8
S214402BD0DB6A012202FA03F3DA43184B1B681A40F9
S214402BE0164B1A60124B1B68DA6AFB68DA62FB689F
S214402BF0DB6A01229A40114B1B681A430F4B1A603E
S214402C00FB68DA6A13469B0013449B00094A1A4441
S214402C10FB68043310461946094B984704E0044BBA
S214402C201B68DA6AFB68DA621037BD4680BD00BFB3
S214402C3090C0002094C00020C906400070C100200B
S214402C401106400080B584B000AF78607B68BB60FA
S214402C500023FB607B68002B58D0BB68DB6C002BE6
S214402C6004D140F64F502C492C4B9847BB68DB6C40
S214402C705A1EBB68DA64BB68DA6ABB689B6C9A42C9
S214402C8044D0BB68DB6C002B40D1BB68043318468D
S214402C90234B98470346002B15D1BB68DA6A214977
S214402CA013469B0013449B000B441B68002B0AD121
S214402CB0BB68DB6A012202FA03F3DA431A4B1B684D
S214402CC01A40194B1A60BB689A6CBB68DA62BB68DC
S214402CD0DB6AC3F10502BB689A61BB68DB6A012206
S214402CE09A40114B1B681A430F4B1A60BB68DA6A4E
S214402CF013469B0013449B000A4A1A44BB6804339D
S214402D0010461946094B98470123FB60FB68184656
S214402D101037BD4680BD00BF14464000D104400079
S214402D20C906400094C0002070C100201106400033
S214402D3080B400AF074B1B68002B04D0054B1B68C4
S214402D40DA6C0132DA64034B1B681846BD465DF800
S214402D50047B704790C0002090B587B004AF002336
S214402D607B60114B9847114B1B68002B0ED00223FB
S214402D7000930023019300230293002303930C48FF
S214402D800C49782200230C4CA04778607B68002BC7
S214402D9004D14FF487700949094B98477B68184619
S214402DA00C37BD4690BD00BFF1324000C4C1002084
S214402DB0E52E400080464000011C4000884640000A
S214402DC0D104400090B58BB000AFF860B9607A602F
S214402DD03B6000237B621D4B1B68002B30D0BB68DA
S214402DE07B617B68BB61FB68FB61BB68052B1CDCB9
S214402DF0174B98470346022B0BD1144B1A6807F122
S214402E00140310461946BA6B0023124CA04778624A
S214402E1016E00E4B1A6807F11403104619460022B6
S214402E2000230C4CA04778620AE0084B1A6807F16A
S214402E301403104619463A680023074CA0477862A8
S214402E407B6A18462C37BD4690BD00BFC4C10020E3
S214402E50152B4000CD114000F513400090B587B0CB
S214402E6002AF78603960194B1B68DB68DB68FB6033
S214402E70FB6804331846164B9847FB68DB69012B02
S214402E801DD1FB689A697B681344F86819463A680E
S214402E907B68104CA0470346012B10D100230093BB
S214402EA0F86800217A6800230B4CA047B860BB68DE
S214402EB0002B04D14FF4C8700849094B9847FB686B
S214402EC05B6AF86898471437BD4690BDBCC1002081
S214402ED0C906400035304000C52D400088464000B9
S214402EE0D104400080B584B000AF786007F1080395
S214402EF01846054B9847F860BB68F8681946034B78
S214402F009847034B9847F1E7A52F4000152F400000
S214402F10BD30400080B584B000AF786039601A4B51
S214402F20984707F108031846184B9847F860BB685F
S214402F30002B24D13B68002B0AD17A68FB689A4262
S214402F4006D8134B98477868F968124B984718E0AC
S214402F50114B1A687968FB68CB1A104619460F4B16
S214402F6098470B4B98470346002B0AD10C4B4FF023
S214402F7080521A60BFF34F8FBFF36F8F01E0044B50
S214402F8098471037BD4680BD591F4000ED2F400082
S214402F90C51F40005D2E4000C4C100200D1B4000F0
S214402FA004ED00E080B485B000AF78600E4B1B683F
S214402FB01B68002B14BF00230123DBB21A467B6834
S214402FC01A607B681B68002B05D1074B1B68DB68C3
S214402FD01B68FB6001E00023FB60FB681846143763
S214402FE0BD465DF8047B7047BCC1002080B584B008
S214402FF000AF78600C4B9847F8600C4B1B68FA683B
S2144030009A4205D20A4B98477B6801221A6002E032
S2144030107B6800221A60054BFA681A60FB681846FF
S2144030201037BD4680BD00BFFD204000C8C100200F
S2144030302932400080B586B000AFF860B9607A604B
S2144030403B6000237B61FB68BA685A60FB68FA689D
S2144030501A61BA687B689A4212D87A683B68D21A74
S214403060FB689B699A4202D301237B611BE0104BAD
S2144030701A68FB680433104619460E4B984712E010
S2144030807A683B689A4206D2BA683B689A4202D34C
S21440309001237B6107E0084B1A68FB68043310463F
S2144030A01946044B98477B6918461837BD4680BD7D
S2144030B0C0C1002059064000BCC1002090B58DB06C
S2144030C002AF8DE0BB68002B14DA07F10803043327
S2144030D07B627B6A002B04D14FF4177049494A4BF8
S2144030E098477B6A1B687A6A51687A6A926808468B
S2144030F011469847BB68002B72DB3B693B623B6AD4
S2144031005B69002B04D03B6A043318463F4B984714
S2144031103B1D18463E4B9847F861BB68092B5ED866
S21440312001A252F823F000BF513140005131400017
S21440313051314000DF314000A9314000D7314000D6
S2144031405131400051314000DF314000A93140004C
S214403150FA683B6A9B691A44FB68386A1146FA6902
S2144031602C4CA0470346012B1DD13B6A5B6A386A4C
S21440317098473B6ADB69012B15D1FA683B6A9B6925
S214403180134400220092386A00211A460023224C3B
S214403190A047B861BB69002B05D140F2962019497B
S2144031A0194B98471CE01BE0FA683B6A9A613B6AF9
S2144031B09B69002B04D140F2AD201249124B984730
S2144031C03B6A9A69FB691344386A1946FA69FB698F
S2144031D0104CA04704E0386A104B984700E000BF08
S2144031E00F4B1A6807F108031046194600220023C1
S2144031F00C4CA0470346002B7FF464AF2C37BD46EB
S21440320090BD00BF88464000D1044000C90640003B
S214403210ED2F400035304000C52D4000150E4000D3
S214403220C4C100202516400090B589B002AF3FE0EB
S214403230284B1B68DB681B687B61264B1B68DB687A
S214403240DB683B613B6904331846234B98473B6930
S2144032505B6A386998473B69DB69012B28D13B6933
S2144032609A697B691344FB60FA687B699A420ED977
S2144032703B69FA685A603B693A691A61154B1A68A5
S2144032803B69043310461946144B984710E0002318
S2144032900093386900217A690023114CA047B86032
S2144032A0BB68002B04D140F2F2200E490E4B9847E3
S2144032B0084B1B681B68002BBAD1064B1B687B600B
S2144032C00A4B1A68034B1A60084B7A681A601C3718
S2144032D0BD4690BDBCC10020C9064000590640000E
S2144032E0C52D400088464000D1044000C0C10020A3
S2144032F080B500AF174B9847174B1B68002B26D15D
S2144033001648174B98471748154B9847164B134A7D
S2144033101A60164B134A1A60052010210022144BDF
S214403320984702460C4B1A600B4B1B68002B04D187
S2144033304FF444700F49104B9847074B1B68002BBF
S21440334005D0054B1B6818460C490D4B98470D4B4E
S214403350984780BDDD084000C4C1002094C10020CD
S214403360B9054000A8C10020BCC10020C0C1002053
S2144033701511400088464000D1044000B046400049
S214403380BD1A40003109400080B483B000AF786079
S2144033907B68044AC3F8E4200C37BD465DF8047BDE
S2144033A0704700BF014E414380B483B000AF7860A1
S2144033B07B68044AC3F8E4200C37BD465DF8047BBE
S2144033C0704700BF004E414380B582B000AF786082
S2144033D07868074B98477B681B6843F001027B6818
S2144033E01A607868034B98470837BD4680BD00BFD3
S2144033F0A93340008933400080B582B000AF786082
S2144034007868074B98477B681B6823F001027B6807
S2144034101A607868034B98470837BD4680BD00BFA2
S21440342089334000A933400080B58AB000AFF860C9
S214403430B9607A60F868514B98477B6846F2A812A4
S21440344002FB03F2BB6813445A1E7B6846F2A8117F
S21440345001FB03F3B2FBF3F3802B01D9002388E092
S214403460BB685A087B684FF4FA5101FB03F39A4253
S21440347001D200237DE0082387F827304FF0FF3342
S2144034803B620823FB772BE0FB7F7A6802FB03F363
S2144034904FF47A7202FB03F3BA68B2FBF3F3802B65
S2144034A01BD8FB7F7A6802FB03F34FF47A7202FB69
S2144034B003F2BB68B3FBF2F102FB01F29B1ABB615D
S2144034C0BA693B6A9A4208D2BB693B62FB7F87F87F
S2144034D027303B6A002B00D105E0FB7F0133FB77AA
S2144034E0FB7F192BD0D997F827307A6802FB03F375
S2144034F04FF47A7202FB03F3BA68B2FBF3F3FB7540
S214403500FB7D012B01D8002333E097F82730A3F149
S214403510080213465B0013445B00194A13443B61A0
S214403520F868184B98473B69DB78013B03F0070285
S2144035303B699B78013B1B0103F070031A433B69D0
S2144035405B78013B1B0203F4E0631A433B691B793B
S214403550013B1B0303F440531A43FB7D013B1B0412
S21440356003F4FE031A43FB685A61F868064B984713
S214403570012318462837BD4680BD00BFA93340000A
S214403580B8464000F93340008933400080B582B0E9
S21440359000AF78607A680F4B9A420AD10E480321F2
S2144035A001220E4B98470C48022101220B4B9847AC
S2144035B00DE07A680A4B9A4209D10A480C21032248
S2144035C0064B984707480F210322044B9847083775
S2144035D0BD4680BD0000014000100E4061394000ED
S2144035E00040014000120E4080B582B000AF7860C7
S2144035F078680B4B98477A680A4B9A4203D1252045
S214403600094B984706E07A68084B9A4202D1262032
S214403610054B98477868064B98470837BD4680BDA7
S214403620A9334000000001403540400000400140C2
S2144036308933400080B582B000AF786013460A46B2
S214403640FA70BB707868144B9847FB78FA787968BC
S214403650103252010A44126822F47021BA781204D9
S2144036600A43796810335B010B441A60FB78FA789A
S2144036707968103252010A44126822F0E06242F041
S2144036804072796810335B010B441A607868034BCC
S21440369098470837BD4680BDA9334000893340006F
S2144036A080B582B000AF78600B46FB7078681B4BE5
S2144036B09847FB787A6810335B01134400221A60FF
S2144036C0FB787A6810335B01134400225A60FB781B
S2144036D07A685B01134403F5027300221A60FB7894
S2144036E07A685B01134403F5047300225A60FB7842
S2144036F07A685B01134403F5067300221A60FB7870
S2144037007A685B01134403F5067300225A607868B2
S214403710034B98470837BD4680BD00BFA9334000DD
S2144037208933400080B586B000AFF860B9607A60F3
S214403730F8681C4B9847F8681B4B9847F8681B4B33
S2144037409847F8681A4B9847F868B9687A68194BEA
S21440375098470346002B00D120E000237B6108E019
S2144037607B69DBB2F8681946134B98477B6901338F
S2144037707B617B69072BF3DDF868104B984700BFE9
S214403780FB681B6903F40013002BF9D0F86800218E
S21440379000220B4B9847F8680A4B98471837BD46A7
S2144037A080BD00BFA9334000F93340008D3540004E
S2144037B0E935400029344000A1364000C933400076
S2144037C0353640008933400082B080B582B000AFC5
S2144037D0786007F1100181E80C007B68D3F810325E
S2144037E003F40003002B01D1012321E07868144B39
S2144037F09847FB699A04134B13407A68C2F808321C
S2144038003A697B68C3F814223B7E042B03D97A6955
S2144038107B68C3F818223B7E1B0403F4702343F4F2
S21440382000027B68C3F81C227868074B9847002341
S21440383018460837BD46BDE8804002B0704700BF16
S214403840A93340000000FC1F8933400080B400AF1D
S214403850034B044A1A60BD465DF8047B704700BFC0
S214403860000A0E400005000480B483B000AF034653
S214403870FB71084B97F907205209F97901F01F01AF
S214403880012000FA01F143F822100C37BD465DF8DE
S214403890047B704700E100E080B500AF09200F4B85
S2144038A098470A200D4B98470B200C4B98470C2006
S2144038B00A4B98470D20094B98470920084B9847D4
S2144038C00A20074B98470B20054B98470C20044B83
S2144038D098470D20024B984780BD00BF35404000BA
S2144038E06938400080B582B000AF78600B46FB7008
S2144038F07868074B9847FB78012202FA03F31A468A
S2144039007B681A617868034B98470837BD4680BD88
S214403910E53A4000C53A400080B483B000AF7860D6
S21440392013460A46FA70BB70BB78002B02D0012BB8
S21440393008D00FE0FB78012202FA03F31A467B68B0
S2144039405A6307E0FB78012202FA03F31A467B68C3
S2144039501A6300BF0C37BD465DF8047B704700BF56
S21440396080B582B000AF786013460A46FA70BB70E6
S2144039707868464B9847BB78042B00F2818001A2BA
S21440398052F823F099394000A9394000E139400007
S214403990173A40004D3A4000FB78012202FA03F302
S2144039A01A467B681A606BE0FB78012202FA03F342
S2144039B01A467B685A607B681A6FFB78012101FAC9
S2144039C003F3DB431A407B681A677B685A6FFB78C1
S2144039D0012101FA03F3DB431A407B685A674FE044
S2144039E0FB78012202FA03F31A467B685A607B682A
S2144039F01A6FFB78012101FA03F31A437B681A67B2
S214403A007B685A6FFB78012101FA03F3DB431A40C7
S214403A107B685A6734E0FB78012202FA03F31A46C1
S214403A207B685A607B681A6FFB78012101FA03F3C2
S214403A30DB431A407B681A677B685A6FFB78012124
S214403A4001FA03F31A437B685A6719E0FB780122B0
S214403A5002FA03F31A467B685A607B681A6FFB7853
S214403A60012101FA03F31A437B681A677B685A6F91
S214403A70FB78012101FA03F31A437B685A6700BFBB
S214403A807868034B98470837BD4680BDE53A400006
S214403A90C53A400080B483B000AF78600B46FB70F8
S214403AA07B68DA6BFB78012101FA03F31340002BA5
S214403AB001D0012300E0002318460C37BD465DF8D0
S214403AC0047B704780B483B000AF78607B68044A5C
S214403AD0C3F8E4200C37BD465DF8047B704700BF52
S214403AE0014F495080B483B000AF78607B68044A89
S214403AF0C3F8E4200C37BD465DF8047B704700BF32
S214403B00004F495080B582B000AF104BDA6C0F4B77
S214403B109B6C13403B6000237B6010E001227B6877
S214403B2002FA03F31A463B681340002B04D0084BB6
S214403B307A6853F8223098477B6801337B607B680D
S214403B401F2BEBDD0837BD4680BD00BF000E0E4084
S214403B50CCC1002080B582B000AF104BDA6C0F4B62
S214403B609B6C13403B6000237B6010E001227B6827
S214403B7002FA03F31A463B681340002B04D0084B66
S214403B807A6853F8223098477B6801337B607B68BD
S214403B901F2BEBDD0837BD4680BD00BF00100E4032
S214403BA04CC2002080B582B000AF104BDA6C0F4B91
S214403BB09B6C13403B6000237B6010E001227B68D7
S214403BC002FA03F31A463B681340002B04D0084B16
S214403BD07A6853F8223098477B6801337B607B686D
S214403BE01F2BEBDD0837BD4680BD00BF00120E40E0
S214403BF0CCC2002080B582B000AF104BDA6C0F4BC1
S214403C009B6C13403B6000237B6010E001227B6886
S214403C1002FA03F31A463B681340002B04D0084BC5
S214403C207A6853F8223098477B6801337B607B681C
S214403C301F2BEBDD0837BD4680BD00BF00140E408D
S214403C404CC3002080B582B000AF104BDA6C0F4BEF
S214403C509B6C13403B6000237B6010E001227B6836
S214403C6002FA03F31A463B681340002B04D0084B75
S214403C707A6853F8223098477B6801337B607B68CC
S214403C801F2BEBDD0837BD4680BD00BF00160E403B
S214403C90CCC3002080B400AF034B044AC3F8E420F2
S214403CA0BD465DF8047B704700040E4001434D500E
S214403CB080B400AF034B044AC3F8E420BD465DF829
S214403CC0047B704700040E4000434D5080B483B0E0
S214403CD000AF7860094B094A126B22F070017A688F
S214403CE00A431A6300BF054B9B6E03F00803002B84
S214403CF0F9D00C37BD465DF8047B704700040E4093
S214403D0080B483B000AF7860094B094A126B22F04A
S214403D1003017A680A431A6300BF054B9B6E03F0A3
S214403D200803002BF9D00C37BD465DF8047B70477E
S214403D3000040E4080B400AF064A064B1B6A23F0D0
S214403D409B7323F4803343F45C131362BD465DF8E3
S214403D50047B704700040E4080B400AF094A094B0C
S214403D601B6A43F45C1343F00803136200BF054B21
S214403D709B6E03F40033002BF9D0BD465DF8047B00
S214403D80704700BF00040E4080B483B000AF786038
S214403D900B4A0B4B1B6A23F45C1323F070037968C1
S214403DA00B4343F45C13136200BF054B9B6E03F456
S214403DB00033002BF9D00C37BD465DF8047B7047C6
S214403DC000040E4080B400AF064A064B1B6A23F43C
S214403DD05C1323F0780343F45C131362BD465DF82E
S214403DE0047B704700040E4080B400AF044B9B6ECB
S214403DF003F001031846BD465DF8047B704700BFDC
S214403E0000040E4080B584B000AF78600E4B1B6A4D
S214403E10FB60FB6823F00303FB607B681B029AB2DF
S214403E20FB68134343F45C1343F00103FB60064B0B
S214403E30FA681A6200BF054B98470346002BFAD033
S214403E401037BD4680BD00BF00040E40E93D40002F
S214403E5080B500AF074A074B1B6A43F09B7343F499
S214403E608033136200BF044B98470346002BFAD0BA
S214403E7080BD00BF00040E40E93D400080B400AF66
S214403E80034B4FF000529A62BD465DF8047B704784
S214403E9000040E4080B400AF044B9B6E03F0020358
S214403EA01846BD465DF8047B704700BF00040E40D0
S214403EB080B584B000AFF860B9607A60104B984720
S214403EC0104A7B68D9B2BB681B0203F47C53194383
S214403ED0FB6818040C4B03400B4343F000539362BB
S214403EE07B68002B02D0FB68002B00D105E000BFAA
S214403EF0064B98470346002BFAD01037BD4680BD88
S214403F007D3E400000040E400000FF07953E400006
S214403F1080B582B000AF0346FB71FB79212B58D8A1
S214403F2001A252F823F000BFB13F4000D33F40000B
S214403F30D33F4000D33F4000D33F4000D33F4000F4
S214403F40D33F4000D33F4000D33F4000D33F4000E4
S214403F50D33F4000D33F4000D33F4000D33F4000D4
S214403F60D33F4000D33F4000B13F4000D33F4000E6
S214403F70D33F4000D33F4000D33F4000D33F4000B4
S214403F80D33F4000D33F4000D33F4000D33F4000A4
S214403F90D33F4000D33F4000D33F4000D33F400094
S214403FA0D33F4000D33F4000B13F4000C33F4000B6
S214403FB0094B9847FB791846084B9847084B984753
S214403FC007E0FF20074B9847074B9847074B984713
S214403FD000BF0837BD4680BD593D4000893D400082
S214403FE0353D4000053E4000513E4000C53D400046
S214403FF080B582B000AF02460B46FA71BB71FB79C2
S214404000022B08D1BB791846084B9847FB791846CF
S214404010074B984707E0FB791846054B9847BB790E
S2144040201846024B98470837BD4680BDCD3C4000F9
S214404030013D400080B582B000AF78607B682F2B92
S21440404001D9012333E01C4B98477B681F2B13D8BC
S2144040501A4B9A697B68012101FA03F31A407B6880
S214404060012101FA03F39A421ED0144B7A680121CB
S21440407001FA02F21A6117E07B68203B7B600F4B27
S214404080D3F808217B68012101FA03F31A407B68C4
S214404090012101FA03F39A4206D0084B7A680121BF
S2144040A001FA02F2C3F80021054B98470023184650
S2144040B00837BD4680BD00BFB13C400000040E40FE
S2144040C0953C400080B582B000AF3B4683E8030095
S2144040D00D4B98473B7818460C4B98473B791A4609
S2144040E0FB7810463F211A46094B98477A78BB78AA
S2144040F010461946074B9847074B984700231846E3
S2144041000837BD4680BD00BFB13C4000113F40006F
S214404110B13E4000F13F4000953C400080B582B043
S21440412000AF00237B60114B1B69114B1B68002BB3
S21440413002D00F4B1B6898470E4B1B68002B06D0CF
S2144041400C4B1A683B1D104619460B4B98477B682C
S214404150002B07D0094B4FF080521A60BFF34F8FA9
S214404160BFF36F8F0837BD4680BD00BF0080084054
S2144041704CC4002090C400202D15400004ED00E003
S21440418070B50F4E0F4D761BB61007D0043D002479
S214404190013455F8043F9847A642F9D10A4E0B4DD4
S2144041A0761B00F0C3FAB61008D0043D0024013454
S2144041B055F8043F9847A642F9D170BD70BD00BF80
S2144041C038474000384740004047400038474000A6
S2144041D0032A70B428D940EA01039B0713D0057818
S2144041E00C78A54224D1013A002305E010F8015F7F
S2144041F011F8014FA5421BD1934203F10103F5D1BB
S214404200002070BC70470C46034625681E68AE42C8
S2144042102146184604F1040403F1040304D1043A89
S214404220032A18462146F0D8002AD8D11046E8E797
S214404230281B70BC704700BF844641EA000313F059
S21440424003036DD1403A41D351F8043B40F8043B58
S21440425051F8043B40F8043B51F8043B40F8043B1B
S21440426051F8043B40F8043B51F8043B40F8043B0B
S21440427051F8043B40F8043B51F8043B40F8043BFB
S21440428051F8043B40F8043B51F8043B40F8043BEB
S21440429051F8043B40F8043B51F8043B40F8043BDB
S2144042A051F8043B40F8043B51F8043B40F8043BCB
S2144042B051F8043B40F8043B51F8043B40F8043BBB
S2144042C051F8043B40F8043B403ABDD2303211D35B
S2144042D051F8043B40F8043B51F8043B40F8043B9B
S2144042E051F8043B40F8043B51F8043B40F8043B8B
S2144042F0103AEDD20C3205D351F8043B40F8043B5B
S214404300043AF9D2043208D0D2071CBF11F8013B58
S21440431000F8013B01D30B8803806046704700BF1E
S214404320082A13D38B078DD010F003038AD0C3F12D
S2144043300403D21ADB071CBF11F8013B00F8013B0F
S21440434080D331F8023B20F8023B7BE7043AD9D3CE
S214404350013A11F8013B00F8013BF9D20B780370A3
S2144043604B7843708B78837060467047F0B4840710
S21440437043D0541E002A3ED0CDB2034603E0621E10
S214404380002C38D0144603F8015B9A07F7D1032C6B
S2144043902AD9CDB245EA05250F2C45EA054515D95B
S2144043A0A4F110073F0903F1100606EB07161A465C
S2144043B0156055609560D5601032B242F8D104F071
S2144043C00F040137032C03EB07130DD91E46224674
S2144043D0043A032A46F8045BFAD8221F22F0030266
S2144043E00432134404F003042CB1C9B21C4403F84D
S2144043F0011BA342FBD1F0BC704714460346C6E7F8
S214404400024B13B1024800F005B8704700000000A8
S21440441021444000014600200246034600F018B8FA
S21440442038B5094D094C641BA41018BF05EB84052C
S21440443005D0013C55F8043D9847002CF9D1BDE81D
S214404440384000F07DB900BF4C4740005047400020
S214404450F0B5274C2668D6F8484185B00746002C6C
S21440446041D065681F2D1EDD224818B94FF0FF3039
S21440447005B0F0BD4FF4C870039102920193AFF3BC
S21440448000800399029A019B04460028EED0D6F895
S21440449048512560002060600546C6F84841C4F88B
S2144044A08801C4F88C013FB9AB1C0020013565601B
S2144044B044F8231005B0F0BD04EB85004FF0010C26
S2144044C0C0F88820D4F888610CFA05F21643022F0B
S2144044D0C4F88861C0F80831E6D1D4F88C311A4364
S2144044E0C4F88C21E0E706F5A674C6F84841B8E75C
S2144044F028474000000000000F00000000000000B9
S2144045000100000044000000626C696E6B49616DFA
S214404510416C6976655461736B00000043414E5FA1
S2144045204341525F73656E645461736B00000000D4
S21440453063616E546573745461736B00210210019D
S2144045400E00000000000000020000000000000016
S21440455001000000440000002E2E2F2E2F73616DA8
S21440456034652D626173652E630000000000000014
S214404570F0E300E02E2E2F73616D34655F62617349
S214404580652F4672656552544F532F536F7572634D
S214404590652F706F727461626C652F4743432F417D
S2144045A0524D5F434D34462F706F72742E63000039
S2144045B0080000002E2E2F73616D34655F626173B4
S2144045C0652F4672656552544F532F536F7572630D
S2144045D0652F706F727461626C652F4D656D4D61AD
S2144045E06E672F686561705F342E63002E2E2F73C2
S2144045F0616D34655F626173652F467265655254BE
S2144046004F532F536F757263652F71756575652EA1
S214404610630000002E2E2F73616D34655F626173F8
S214404620652F4672656552544F532F536F757263AC
S214404630652F7461736B732E6300000049444C45CC
S21440464000000000092563092575092575092575AB
S2144046500D0A00000925750909257525250D0A004E
S21440466009257509093C3125250D0A00A5A5A5A5EE
S214404670A5A5A5A5A5A5A5A5A5A5A5A5A5A5A5A5A5
S214404680546D7220537663002E2E2F73616D346501
S2144046905F626173652F4672656552544F532F5360
S2144046A06F757263652F74696D6572732E63000053
S2144046B0546D72510000000008030202034B0902C9
S2144046C0030302430A03030303460B04030304489D
S2144046D00C03040404430D040404044D0E040405B2
S2144046E004400F040505044310050505044511065E
S2144046F00505044712050606044313060606044449
S2144047001407060604461508060604471607070754
S21440471004441708080704461807080804431908FD
S214404720080804444300000010000020F8B500BF0D
S214404730F8BC08BC9E467047014440001D0140003E
S214404740F8B500BFF8BC08BC9E467047F90040006C
S21440475000093D00AAAAAAAAFFFFFFFF000000002A
S21440476000000000FC02002064030020CC03002070
S21440477000000000000000000000000000000000F4
S21440478000000000000000000000000000000000E4
S2144047900000000024474000000000000000000029
S2144047A000000000000000000000000000000000C4
S2144047B000000000000000000000000000000000B4
S2144047C000000000000000000000000000000000A4
S2144047D00000000000000000000000000000000094
S2144047E00000000000000000000000000000000084
S2144047F00000000000000000000000000000000074
S2144048000000000000000000010000000000000062
S2144048100E33CDAB34126DE6ECDE05000B00000027
S2144048200000000000000000000000000000000043
S2144048300000000000000000000000000000000033
S2144048400000000000000000000000000000000023
S2144048500000000000000000000000000000000013
S804400000BB
